{
  "_format": "hh-sol-artifact-1",
  "contractName": "Raffle",
  "sourceName": "contracts/Raffle.sol",
  "abi": [
    {
      "inputs": [
        {
          "internalType": "address",
          "name": "vrfCoordinatorV2",
          "type": "address"
        },
        {
          "internalType": "uint64",
          "name": "subscriptionId",
          "type": "uint64"
        },
        {
          "internalType": "bytes32",
          "name": "gasLane",
          "type": "bytes32"
        },
        {
          "internalType": "uint256",
          "name": "interval",
          "type": "uint256"
        },
        {
          "internalType": "uint256",
          "name": "entranceFee",
          "type": "uint256"
        },
        {
          "internalType": "uint32",
          "name": "callbackGasLimit",
          "type": "uint32"
        }
      ],
      "stateMutability": "nonpayable",
      "type": "constructor"
    },
    {
      "inputs": [
        {
          "internalType": "address",
          "name": "have",
          "type": "address"
        },
        {
          "internalType": "address",
          "name": "want",
          "type": "address"
        }
      ],
      "name": "OnlyCoordinatorCanFulfill",
      "type": "error"
    },
    {
      "inputs": [],
      "name": "Raffle__NotEnoughETHEntered",
      "type": "error"
    },
    {
      "inputs": [],
      "name": "Raffle__NotOpen",
      "type": "error"
    },
    {
      "inputs": [],
      "name": "Raffle__TransferFailed",
      "type": "error"
    },
    {
      "inputs": [
        {
          "internalType": "uint256",
          "name": "currentBalance",
          "type": "uint256"
        },
        {
          "internalType": "uint256",
          "name": "numPlayers",
          "type": "uint256"
        },
        {
          "internalType": "uint256",
          "name": "raffleState",
          "type": "uint256"
        }
      ],
      "name": "Raffle__UpkeepNotNeeded",
      "type": "error"
    },
    {
      "anonymous": false,
      "inputs": [
        {
          "indexed": true,
          "internalType": "address",
          "name": "player",
          "type": "address"
        }
      ],
      "name": "RaffleEnter",
      "type": "event"
    },
    {
      "anonymous": false,
      "inputs": [
        {
          "indexed": true,
          "internalType": "uint256",
          "name": "requestId",
          "type": "uint256"
        }
      ],
      "name": "RequestedRaffleWinner",
      "type": "event"
    },
    {
      "anonymous": false,
      "inputs": [
        {
          "indexed": true,
          "internalType": "address",
          "name": "winner",
          "type": "address"
        }
      ],
      "name": "WinnerPicked",
      "type": "event"
    },
    {
      "inputs": [
        {
          "internalType": "bytes",
          "name": "",
          "type": "bytes"
        }
      ],
      "name": "checkUpkeep",
      "outputs": [
        {
          "internalType": "bool",
          "name": "upkeepNeeded",
          "type": "bool"
        },
        {
          "internalType": "bytes",
          "name": "",
          "type": "bytes"
        }
      ],
      "stateMutability": "nonpayable",
      "type": "function"
    },
    {
      "inputs": [],
      "name": "enterRaffle",
      "outputs": [],
      "stateMutability": "payable",
      "type": "function"
    },
    {
      "inputs": [],
      "name": "getEntranceFee",
      "outputs": [
        {
          "internalType": "uint256",
          "name": "",
          "type": "uint256"
        }
      ],
      "stateMutability": "view",
      "type": "function"
    },
    {
      "inputs": [],
      "name": "getInterval",
      "outputs": [
        {
          "internalType": "uint256",
          "name": "",
          "type": "uint256"
        }
      ],
      "stateMutability": "view",
      "type": "function"
    },
    {
      "inputs": [],
      "name": "getLatestTimeStamp",
      "outputs": [
        {
          "internalType": "uint256",
          "name": "",
          "type": "uint256"
        }
      ],
      "stateMutability": "view",
      "type": "function"
    },
    {
      "inputs": [],
      "name": "getNumWords",
      "outputs": [
        {
          "internalType": "uint256",
          "name": "",
          "type": "uint256"
        }
      ],
      "stateMutability": "pure",
      "type": "function"
    },
    {
      "inputs": [],
      "name": "getNumberOfPlayers",
      "outputs": [
        {
          "internalType": "uint256",
          "name": "",
          "type": "uint256"
        }
      ],
      "stateMutability": "view",
      "type": "function"
    },
    {
      "inputs": [
        {
          "internalType": "uint256",
          "name": "index",
          "type": "uint256"
        }
      ],
      "name": "getPlayer",
      "outputs": [
        {
          "internalType": "address",
          "name": "",
          "type": "address"
        }
      ],
      "stateMutability": "view",
      "type": "function"
    },
    {
      "inputs": [],
      "name": "getRaffleState",
      "outputs": [
        {
          "internalType": "enum Raffle.RaffleState",
          "name": "",
          "type": "uint8"
        }
      ],
      "stateMutability": "view",
      "type": "function"
    },
    {
      "inputs": [],
      "name": "getRecentWinner",
      "outputs": [
        {
          "internalType": "address",
          "name": "",
          "type": "address"
        }
      ],
      "stateMutability": "view",
      "type": "function"
    },
    {
      "inputs": [],
      "name": "getRequestConfirmations",
      "outputs": [
        {
          "internalType": "uint256",
          "name": "",
          "type": "uint256"
        }
      ],
      "stateMutability": "pure",
      "type": "function"
    },
    {
      "inputs": [
        {
          "internalType": "bytes",
          "name": "",
          "type": "bytes"
        }
      ],
      "name": "performUpkeep",
      "outputs": [],
      "stateMutability": "nonpayable",
      "type": "function"
    },
    {
      "inputs": [
        {
          "internalType": "uint256",
          "name": "requestId",
          "type": "uint256"
        },
        {
          "internalType": "uint256[]",
          "name": "randomWords",
          "type": "uint256[]"
        }
      ],
      "name": "rawFulfillRandomWords",
      "outputs": [],
      "stateMutability": "nonpayable",
      "type": "function"
    }
  ],
  "bytecode": "0x6101406040523480156200001257600080fd5b50604051620017e9380380620017e98339818101604052810190620000389190620001ab565b858073ffffffffffffffffffffffffffffffffffffffff1660808173ffffffffffffffffffffffffffffffffffffffff1660601b81525050508573ffffffffffffffffffffffffffffffffffffffff1660c08173ffffffffffffffffffffffffffffffffffffffff1660601b815250508360e08181525050826002819055508467ffffffffffffffff166101008167ffffffffffffffff1660c01b815250508160a081815250506000600360146101000a81548160ff02191690836001811115620001085762000107620002b3565b5b0217905550426001819055508063ffffffff166101208163ffffffff1660e01b8152505050505050505062000369565b6000815190506200014981620002e7565b92915050565b600081519050620001608162000301565b92915050565b60008151905062000177816200031b565b92915050565b6000815190506200018e8162000335565b92915050565b600081519050620001a5816200034f565b92915050565b60008060008060008060c08789031215620001cb57620001ca620002e2565b5b6000620001db89828a0162000138565b9650506020620001ee89828a0162000194565b95505060406200020189828a016200014f565b94505060606200021489828a0162000166565b93505060806200022789828a0162000166565b92505060a06200023a89828a016200017d565b9150509295509295509295565b6000620002548262000265565b9050919050565b6000819050919050565b600073ffffffffffffffffffffffffffffffffffffffff82169050919050565b6000819050919050565b600063ffffffff82169050919050565b600067ffffffffffffffff82169050919050565b7f4e487b7100000000000000000000000000000000000000000000000000000000600052602160045260246000fd5b600080fd5b620002f28162000247565b8114620002fe57600080fd5b50565b6200030c816200025b565b81146200031857600080fd5b50565b620003268162000285565b81146200033257600080fd5b50565b62000340816200028f565b81146200034c57600080fd5b50565b6200035a816200029f565b81146200036657600080fd5b50565b60805160601c60a05160c05160601c60e0516101005160c01c6101205160e01c611416620003d360003960006106a60152600061068301526000610662015260006106260152600081816102fa01526103f7015260008181610337015261038b01526114166000f3fe6080604052600436106100c25760003560e01c8063473f1ddc1161007f5780636e04ff0d116100595780636e04ff0d1461022557806391ad27b414610263578063e55ae4e81461028e578063fd6673f5146102cb576100c2565b8063473f1ddc146101a457806353a2c19a146101cf5780635f1b0fd8146101fa576100c2565b806309bc33a7146100c7578063115cbaf5146100f25780631fe543e31461011d5780632cfcc53914610146578063320229eb146101505780634585e33b1461017b575b600080fd5b3480156100d357600080fd5b506100dc6102f6565b6040516100e9919061101c565b60405180910390f35b3480156100fe57600080fd5b5061010761031e565b6040516101149190611001565b60405180910390f35b34801561012957600080fd5b50610144600480360381019061013f9190610df5565b610335565b005b61014e6103f5565b005b34801561015c57600080fd5b50610165610564565b604051610172919061101c565b60405180910390f35b34801561018757600080fd5b506101a2600480360381019061019d9190610d05565b61056e565b005b3480156101b057600080fd5b506101b961076e565b6040516101c69190610f3a565b60405180910390f35b3480156101db57600080fd5b506101e4610798565b6040516101f1919061101c565b60405180910390f35b34801561020657600080fd5b5061020f6107a7565b60405161021c919061101c565b60405180910390f35b34801561023157600080fd5b5061024c60048036038101906102479190610d52565b6107b4565b60405161025a929190610f7e565b60405180910390f35b34801561026f57600080fd5b50610278610842565b604051610285919061101c565b60405180910390f35b34801561029a57600080fd5b506102b560048036038101906102b09190610d9b565b61084c565b6040516102c29190610f3a565b60405180910390f35b3480156102d757600080fd5b506102e0610893565b6040516102ed919061101c565b60405180910390f35b60007f0000000000000000000000000000000000000000000000000000000000000000905090565b6000600360149054906101000a900460ff16905090565b7f000000000000000000000000000000000000000000000000000000000000000073ffffffffffffffffffffffffffffffffffffffff163373ffffffffffffffffffffffffffffffffffffffff16146103e757337f00000000000000000000000000000000000000000000000000000000000000006040517f1cf993f40000000000000000000000000000000000000000000000000000000081526004016103de929190610f55565b60405180910390fd5b6103f1828261089f565b5050565b7f000000000000000000000000000000000000000000000000000000000000000034101561044f576040517fbd4e069500000000000000000000000000000000000000000000000000000000815260040160405180910390fd5b60006001811115610463576104626112f6565b5b600360149054906101000a900460ff166001811115610485576104846112f6565b5b146104bc576040517f1425571c00000000000000000000000000000000000000000000000000000000815260040160405180910390fd5b6000339080600181540180825580915050600190039060005260206000200160009091909190916101000a81548173ffffffffffffffffffffffffffffffffffffffff021916908373ffffffffffffffffffffffffffffffffffffffff1602179055503373ffffffffffffffffffffffffffffffffffffffff167f0805e1d667bddb8a95f0f09880cf94f403fb596ce79928d9f29b74203ba284d460405160405180910390a2565b6000600154905090565b6000610588604051806020016040528060008152506107b4565b509050806105f75747600080549050600360149054906101000a900460ff1660018111156105b9576105b86112f6565b5b6040517f584327aa0000000000000000000000000000000000000000000000000000000081526004016105ee93929190611037565b60405180910390fd5b6001600360146101000a81548160ff0219169083600181111561061d5761061c6112f6565b5b021790555060007f000000000000000000000000000000000000000000000000000000000000000073ffffffffffffffffffffffffffffffffffffffff16635d3b1d307f00000000000000000000000000000000000000000000000000000000000000007f000000000000000000000000000000000000000000000000000000000000000060037f000000000000000000000000000000000000000000000000000000000000000060016040518663ffffffff1660e01b81526004016106e7959493929190610fae565b602060405180830381600087803b15801561070157600080fd5b505af1158015610715573d6000803e3d6000fd5b505050506040513d601f19601f820116820180604052508101906107399190610dc8565b9050807fcd6e45c8998311cab7e9d4385596cac867e20a0587194b954fa3a731c93ce78b60405160405180910390a250505050565b6000600360009054906101000a900473ffffffffffffffffffffffffffffffffffffffff16905090565b6000600163ffffffff16905090565b6000600361ffff16905090565b6000606060008060018111156107cd576107cc6112f6565b5b600360149054906101000a900460ff1660018111156107ef576107ee6112f6565b5b1490506000600254600154426108059190611117565b119050600080600080549050119050600080471190508380156108255750825b801561082e5750815b80156108375750805b955050505050915091565b6000600254905090565b600080828154811061086157610860611325565b5b9060005260206000200160009054906101000a900473ffffffffffffffffffffffffffffffffffffffff169050919050565b60008080549050905090565b60008080549050826000815181106108ba576108b9611325565b5b60200260200101516108cc9190611267565b905060008082815481106108e3576108e2611325565b5b9060005260206000200160009054906101000a900473ffffffffffffffffffffffffffffffffffffffff16905080600360006101000a81548173ffffffffffffffffffffffffffffffffffffffff021916908373ffffffffffffffffffffffffffffffffffffffff1602179055506000600360146101000a81548160ff02191690836001811115610977576109766112f6565b5b0217905550600067ffffffffffffffff81111561099757610996611354565b5b6040519080825280602002602001820160405280156109c55781602001602082028036833780820191505090505b50600090805190602001906109db929190610ad0565b504260018190555060008173ffffffffffffffffffffffffffffffffffffffff1647604051610a0990610f25565b60006040518083038185875af1925050503d8060008114610a46576040519150601f19603f3d011682016040523d82523d6000602084013e610a4b565b606091505b5050905080610a86576040517fa1d04b3900000000000000000000000000000000000000000000000000000000815260040160405180910390fd5b8173ffffffffffffffffffffffffffffffffffffffff167f5b690ec4a06fe979403046eaeea5b3ce38524683c3001f662c8b5a829632f7df60405160405180910390a25050505050565b828054828255906000526020600020908101928215610b49579160200282015b82811115610b485782518260006101000a81548173ffffffffffffffffffffffffffffffffffffffff021916908373ffffffffffffffffffffffffffffffffffffffff16021790555091602001919060010190610af0565b5b509050610b569190610b5a565b5090565b5b80821115610b73576000816000905550600101610b5b565b5090565b6000610b8a610b8584611093565b61106e565b90508083825260208201905082856020860282011115610bad57610bac61138d565b5b60005b85811015610bdd5781610bc38882610cdb565b845260208401935060208301925050600181019050610bb0565b5050509392505050565b6000610bfa610bf5846110bf565b61106e565b905082815260208101848484011115610c1657610c15611392565b5b610c218482856111f4565b509392505050565b600082601f830112610c3e57610c3d611388565b5b8135610c4e848260208601610b77565b91505092915050565b60008083601f840112610c6d57610c6c611388565b5b8235905067ffffffffffffffff811115610c8a57610c89611383565b5b602083019150836001820283011115610ca657610ca561138d565b5b9250929050565b600082601f830112610cc257610cc1611388565b5b8135610cd2848260208601610be7565b91505092915050565b600081359050610cea816113c9565b92915050565b600081519050610cff816113c9565b92915050565b60008060208385031215610d1c57610d1b61139c565b5b600083013567ffffffffffffffff811115610d3a57610d39611397565b5b610d4685828601610c57565b92509250509250929050565b600060208284031215610d6857610d6761139c565b5b600082013567ffffffffffffffff811115610d8657610d85611397565b5b610d9284828501610cad565b91505092915050565b600060208284031215610db157610db061139c565b5b6000610dbf84828501610cdb565b91505092915050565b600060208284031215610dde57610ddd61139c565b5b6000610dec84828501610cf0565b91505092915050565b60008060408385031215610e0c57610e0b61139c565b5b6000610e1a85828601610cdb565b925050602083013567ffffffffffffffff811115610e3b57610e3a611397565b5b610e4785828601610c29565b9150509250929050565b610e5a8161114b565b82525050565b610e698161115d565b82525050565b610e7881611169565b82525050565b6000610e89826110f0565b610e9381856110fb565b9350610ea3818560208601611203565b610eac816113a1565b840191505092915050565b610ec0816111e2565b82525050565b6000610ed360008361110c565b9150610ede826113b2565b600082019050919050565b610ef281611186565b82525050565b610f01816111b4565b82525050565b610f10816111be565b82525050565b610f1f816111ce565b82525050565b6000610f3082610ec6565b9150819050919050565b6000602082019050610f4f6000830184610e51565b92915050565b6000604082019050610f6a6000830185610e51565b610f776020830184610e51565b9392505050565b6000604082019050610f936000830185610e60565b8181036020830152610fa58184610e7e565b90509392505050565b600060a082019050610fc36000830188610e6f565b610fd06020830187610f16565b610fdd6040830186610ee9565b610fea6060830185610f07565b610ff76080830184610f07565b9695505050505050565b60006020820190506110166000830184610eb7565b92915050565b60006020820190506110316000830184610ef8565b92915050565b600060608201905061104c6000830186610ef8565b6110596020830185610ef8565b6110666040830184610ef8565b949350505050565b6000611078611089565b90506110848282611236565b919050565b6000604051905090565b600067ffffffffffffffff8211156110ae576110ad611354565b5b602082029050602081019050919050565b600067ffffffffffffffff8211156110da576110d9611354565b5b6110e3826113a1565b9050602081019050919050565b600081519050919050565b600082825260208201905092915050565b600081905092915050565b6000611122826111b4565b915061112d836111b4565b9250828210156111405761113f611298565b5b828203905092915050565b600061115682611194565b9050919050565b60008115159050919050565b6000819050919050565b6000819050611181826113b5565b919050565b600061ffff82169050919050565b600073ffffffffffffffffffffffffffffffffffffffff82169050919050565b6000819050919050565b600063ffffffff82169050919050565b600067ffffffffffffffff82169050919050565b60006111ed82611173565b9050919050565b82818337600083830152505050565b60005b83811015611221578082015181840152602081019050611206565b83811115611230576000848401525b50505050565b61123f826113a1565b810181811067ffffffffffffffff8211171561125e5761125d611354565b5b80604052505050565b6000611272826111b4565b915061127d836111b4565b92508261128d5761128c6112c7565b5b828206905092915050565b7f4e487b7100000000000000000000000000000000000000000000000000000000600052601160045260246000fd5b7f4e487b7100000000000000000000000000000000000000000000000000000000600052601260045260246000fd5b7f4e487b7100000000000000000000000000000000000000000000000000000000600052602160045260246000fd5b7f4e487b7100000000000000000000000000000000000000000000000000000000600052603260045260246000fd5b7f4e487b7100000000000000000000000000000000000000000000000000000000600052604160045260246000fd5b600080fd5b600080fd5b600080fd5b600080fd5b600080fd5b600080fd5b6000601f19601f8301169050919050565b50565b600281106113c6576113c56112f6565b5b50565b6113d2816111b4565b81146113dd57600080fd5b5056fea2646970667358221220318bd458b5acb8ba182e562d556125ed04176b166ef703166100ff71c6f39e1b64736f6c63430008070033",
  "linkReferences": {},
  "deployedLinkReferences": {}
}